:02000004C0D06A
:10000000F0B503AFB5B062B6364800250560364896
:100010003C2101603548012404703548057001F029
:10002000B9FB34481422294601F060FC324E306896
:10003000339029AD284603F065FEA88535602F4929
:10004000084206D029A9002088853399316035B04F
:10005000F0BD01F0DFFD2F48784420A901916CC864
:100060006CC16CC86CC102200021029103AD0A462C
:100070002B4602F08FF8202216AE20460199334617
:1000800002F0A6F8204629463246234602F0BEF882
:10009000214878442822314602F022F828A90C7021
:1000A0001E487844224602F01BF8154D602228466F
:1000B000029901F01BFC1348A8641348E864134834
:1000C00028652120C00054216852284602F086FB92
:1000D0000F4804702046214603F01AFC01F034F961
:1000E00001F060FA741A0020781A0020A419002088
:1000F000B41A0020901900206C1D0020FFFF0000A2
:10010000A8190020E11B0020211C0020611C0020F8
:100110004F1F0020D04300006A43000082430000CC
:10012000F0B503AF8DB0019306AE30707170B27050
:1001300004A80390002507220292294601F083FFBC
:1001400007AC18222046294601F07DFF3F20208081
:100150008A206080099603260A9603980B900298DD
:100160000C902046294600F031FB0146FF20002973
:100170001ADB04A80078002816D1139812990123DD
:1001800004AA13435B781B0254781C43019B1C8018
:10019000164373781B02D4781C430C8051799279F2
:1001A00012020A43028028460DB0F0BDF0B503AF3D
:1001B0009BB01AAC218019A90A8018A9259A0A8037
:1001C00017A9269A0A80239C219D2A190E324221C2
:1001D000282A58D8249905912299039120990191B0
:1001E000009306AE3070701C1AA902220492029489
:1001F000144601F01BFFF01C19A9224601F016FF5E
:10020000009870710198B071F5713046083003990B
:100210002A4601F00BFF28460830C0B2029C345435
:100220000935E8B230180599224601F0FFFE65193C
:100230000595E8B2301818A9049C224601F0F6FE94
:10024000A81CC0B2301817A9224601F0EFFE11AD6C
:10025000002418222846214601F0F5FE3F20288080
:100260008320688013960598001DC0B2149010A8D2
:100270001590012016902846214600F0A7FAE14388
:10028000002800DB1099C8B21BB0F0BDF0B503AF79
:100290008FB01C4602AE30707170022030431023C4
:1002A00011461A4601F0C2FEB4741498F074159801
:1002B00030751698010E3176010CF175010AB17591
:1002C00070751798707609AD0024182228462146CB
:1002D00001F0B9FE3F202880862068800B961A2006
:1002E0000C9001A80D9001200E902846214600F0A8
:1002F0006DFAE143002800DB0199C8B20FB0F0BDF0
:10030000B0B502AF88B002AD0024182228462146BD
:1003100001F099FE3F2028800848688001A80690D7
:10032000012007902846214600F050FAE1430028BA
:1003300000DB0199C8B208B0B0BDC04601010000A1
:10034000F0B503AF91B00493164605AB18700225C3
:100350001022012800D01546581C2A461C4603943A
:1003600001F064FE0120019005436655601904996F
:1003700041700AA80490002403220292214601F051
:1003800062FE0BAE18223046214601F05CFE3F2093
:10039000308081204000708003980D90A81C0E9042
:1003A00004980F90029810903046214600F00EFA03
:1003B0000146FF2000290DDB0AA80078002809D19A
:1003C00016980AA9019A0A435278120249781143F1
:1003D0000180204611B0F0BDF0B503AF93B0039398
:1003E00002920E4612A9088004AD02242846224635
:1003F00001F01CFEAE701020012E00D00446E81C57
:100400000299224601F012FE60190399C17004217D
:100410002143189A6A5405212143199A6A541A995A
:1004200081711B99C171082020431C9929540BA884
:100430000290002103910322019201F004FE0CAE10
:1004400018223046039901F0FEFD3F203080412004
:10045000800070800E9509202043039C0F90029825
:100460001090019811903046214600F0AFF90146F6
:10047000FF2000290DDB0BA80078002809D11D986A
:1004800001210BAA11434978090252780A430280DC
:10049000204613B0F0BDF0B503AFADB01C46134617
:1004A0002CAA10802BA80180A01D4221802833D8BF
:1004B0003299029104AD2CA90226039028463246B7
:1004C000019301F0B3FDA81C2BA9324601F0AEFD4B
:1004D000019828716C71A81D0299224601F0A6FDB1
:1004E00025AE002418223046214601F0ACFD3F2005
:1004F000308083204000708027950398C0B22890F8
:1005000024A8299001202A903046214600F05EF967
:10051000E143002800DB2499C8B22DB0F0BDF0B54E
:1005200003AFADB02CAC20802BA80180329EF01D13
:100530004221802836D833990291019204AC2CA92B
:100540000225039020462A46009301F06FFDA01C6F
:100550002BA92A4601F06AFD01982071009860716C
:10056000A671E01D0299324601F060FD25AE00251E
:1005700018223046294601F066FD3F203080932046
:100580004000708027940398C0B2289024A8299036
:1005900001202A903046294600F018F9E943002846
:1005A00000DB2499C8B22DB0F0BDF0B503AFA9B0FF
:1005B0000B469E1C4221802E22D802AC2070637014
:1005C000A01C11461A4601F031FD23AD0021019116
:1005D0001822284601F037FD3F2028800C20688033
:1005E0002594F0B2269022A8279001202890284632
:1005F000019C214600F0EAF8E143002800DB229943
:10060000C8B229B0F0BDF0B503AF89B002AE30700A
:10061000717003AD002418222846214601F013FD15
:100620003F2028800F20688005960220069001A8B0
:100630000790012008902846214600F0C7F8E143C2
:10064000002800DB0199C8B209B0F0BDF0B503AFD6
:1006500081B01C461646009105460F4840210170A6
:100660003119491C0A0A427081700321C1700421AA
:1006700001F046FE002D05D0002E03D0284631465D
:1006800001F03EFE0098002804D0002C02D0214644
:1006900001F036FE01B0F0BDB51A00207047000031
:1006A000F0B503AF81B00A4C204600F0C1FC094808
:1006B00000F0BEFC0025084E7119204600F0C6FC73
:1006C0005035F02DF8D105480021017001B0F0BD82
:1006D000001800200418002008180020F918002035
:1006E000B0B502AF82B00C46054600200190244808
:1006F00000F0A1FC002803D02248012101703CE059
:10070000002C1ED01E4801A900F0A4FC4822482C51
:1007100000D822460198001D294601F087FC4C2094
:1007200001990C540879042808D18879E2B2D21EC4
:10073000904203D1144800F089FC02E0104800F018
:1007400081FC12480078002817D10F4800F073FC94
:10075000002812D10C4C0A4D01A9204600F07AFC69
:100760000198001D00F0F6FB0199284600F06EFC90
:10077000204600F060FC0028EED002B0B0BDC046BC
:1007800000180020F818002004180020F918002094
:10079000F0B503AF83B01D4614460B4A0A408002F1
:1007A000104302A908808C7001AE01203070701CCB
:1007B000032201F03BFC0422304629462346FFF782
:1007C00045FF03B0F0BDC046FF030000F0B503AF26
:1007D00089B00C4605462888029068880490002657
:1007E000069605A800F024FC4D4901200870AB686E
:1007F0002A7B296888B2090CFFF7CAFF002C00D0B9
:1008000085E00395019607A80121FFF747FF4548BA
:10081000049901400298800208430290424D434EE1
:1008200002E005A800F084F801F018F94B208400DC
:100830000022049202E001F011F90022284621462C
:1008400001F098FD01F0C6F9304600F0F4FB0028F5
:10085000F1D106A9304600F0FDFB069905A800F08D
:10086000F5FB069908790428DBD14C20085C4A790D
:10087000CB1D0F2A03DC07D00E2AD5D123E03E2A58
:1008800012D0102AD0D130E04A7A897A0902114375
:10089000029A92B2914228D1039C61680F292BD011
:1008A00018780028C0D020E0039A52681B78934241
:1008B000BAD1021F039B5869824200DB02465A618B
:1008C0001869083120E00A7A4B7A1B021343029A16
:1008D00092B2934209D1821F039B5869824200DB86
:1008E00002465A6118690A310EE005A800F020F8A6
:1008F0000498C043019E0EE0C21E6069824200DB84
:10090000024662612069194601F090FB019E05A82C
:1009100000F00EF8304602490E7009B0F0BDC04636
:10092000F9180020FF030000B51A00200418002069
:10093000B0B502AF82B0044600F07DFB00280DD1B7
:10094000074D01A9204600F085FB0199284600F0DB
:100950007DFB204600F06FFB0028F2D002B0B0BD56
:1009600000180020F0B503AF93B00191064605AD25
:100970000024202203922846214601F064FB2E70B9
:1009800001210291284608431F221F2E00D832461B
:10099000019901F04BFB0DAE18223046214601F0C3
:1009A00052FB08203080092070800F95039810902A
:1009B00004AD11950298129030462146FFF706FFCC
:1009C0000146FF20002900DB287813B0F0BD0000AD
:1009D000F0B503AF83B02F48006802900120C00536
:1009E00005682D4E0020F073B07370733073F07291
:1009F000B07270723072F071B0713A217171112160
:100A00003171E721F170B070707002213170234CA8
:100A1000E077A07760772077E076A0766076207622
:100A2000E075A07560752075E074A0741C49794468
:100A30001222204603F086F802984540290F1948F3
:100A40007844415C21722B0E02930F221340C35C49
:100A500063722B0D1340C35CA3722B0C01931340E4
:100A6000C35CE3722B0B1340C35C2373290A0B4650
:100A70001340C35C63732B091340C35CA3732A4008
:100A8000805CE0730298F0700198B07071703570FE
:100A900003B0F0BD040080001A190020FA180020ED
:100AA0006E3300009E330000F0B503AF89B00446FA
:100AB000002C00D11E4C1F4EB4620025284629464A
:100AC000FFF750FFFF2108422DD1B088F1881C4A62
:100AD0007A446B461A6006232A46FFF7DCFC09209D
:100AE000800108AA1080B08831896B461A60022301
:100AF0002A46FFF7D0FC204603F01EF93E216A4645
:100B00000723C0B21560161D31C61561536191618E
:100B10002720C100094A28462B46FFF747FB00283B
:100B200001D109B0F0BD04480068012103F0F6F8D6
:100B3000FA1800202C1900206C1D0020530700001B
:100B40001F330000F0B503AF89B00446FFF740FF44
:100B50003E4D3021284602F0EFFFFFF7A1FD0020B7
:100B600006213B4AFFF721FD002869D1FFF7C8FBAA
:100B7000002865D1284608306946AA1D0A604860E9
:100B80002B1D012000210722FFF7CAFA002857D1A8
:100B900000266846C6603049816046601021079192
:100BA00001600723304631463246FFF76FFB0028CD
:100BB00046D1069428460A30694608600220274933
:100BC0007944012208920723FFF7BAFB002837D1A6
:100BD000688929460C316A46079C50C216605460E9
:100BE000089B9360D16002251D4A7A44142329464C
:100BF000FFF7F2FB002823D11448014648890E3143
:100C00006A46082348C215605460089B9360D1600F
:100C1000144A7A4414232946FFF7DEFB00280FD13B
:100C200001200721FFF7EFFC0028069808D10749AB
:100C30000A46167424215654FFF736FF09B0F0BD5A
:100C400004480068012103F069F8C0462C1900200F
:100C50001A1900206C1D002039050000EE3100003B
:100C6000D4310000BC310000F0B503AF83B01446AE
:100C70000D46064613490020C8620A20029011481A
:100C8000408969460D60002231462346FFF703FC88
:100C9000002814D06428F2D100F0E0FE4B2081003F
:100CA0000022094801F066FB00F094FF0548C06A85
:100CB0000028F1D00298401E02900028DFD103B036
:100CC000F0BDC0462C190020B51A0020B0B502AF07
:100CD00086B00246514D687F00285BD10878052810
:100CE00043D8800001A3C058C018874618000000F0
:100CF00028000000380000007E0000007E00000098
:100D0000480000004878002802D18878002843D0A5
:100D1000032029E04878002802D18878002845D0AF
:100D2000052021E04878002802D18878002846D0A4
:100D3000042019E0287F00282CD14878AB8A1B0AB0
:100D4000984210D18878AB8ADBB298420BD13648F2
:100D50001318A88A002834D0688A9AB2824200D92F
:100D60006B8AC91C45E0002008700020A8826882B8
:100D70002B4AAA61287768772A4A108004AB187139
:100D800004900E20187008785870A889052219461A
:100D9000FFF76AFF06B0B0BD01A9002008720290FB
:100DA000019004200871A8890922F1E70020A88297
:100DB00068821B4BAB61287768771A4B1880A8892B
:100DC000E6E70879CB781B0203436B821448A861DD
:100DD000688A144C2080154813182088144A9042C1
:100DE00001D30120C0E7688A9AB2824200D96B8A97
:100DF000491DA8699CB2224602F0A8FEA869001904
:100E0000A861688A001B6882A88A401CA882688A38
:100E10000028BFD1242000212954BBE72C19002031
:100E2000BC1D0020CE1E0020FDFF0000FBFF0100C6
:100E300005010000F0B503AF89B0314C227F0125D8
:100E4000002A59D1012203922277A06161820025F4
:100E5000A5822C480580608A002848D004A8411D3E
:100E60000191C01C029004A805210170A18A090A01
:100E70004170A18A8170A18A608A002910D0112650
:100E8000112800D8668AA1690298324602F05EFEF7
:100E9000A0698019A061608A801B6082F11C15E046
:100EA0000F260F2800D8668A608A000A04A9C87035
:100EB000608A0871A1690198324602F047FEA06974
:100EC0008019A061608A801B6082711DA08A401C0D
:100ED000A08203986077207F00280BD0A089CAB237
:100EE00004A9FFF7C1FE6577608A0028BBD1A582FF
:100EF000257701E065770225E8B209B0F0BDC0466C
:100F00002C190020CE1E0020F0B503AF83B00F4D8A
:100F100044200290287000246C700126AE70EC70A2
:100F200004210191284601F0EBF9029828706C70B9
:100F3000AE700320E8702846019901F0E1F92046DF
:100F4000FFF700FE0248047403B0F0BDB51A00209C
:100F50002C190020F0B503AF83B004462078042894
:100F60005BD16078FF2806D03E2823D0052854D1D5
:100F7000FFF7CAFF51E0E1782079000208432849D1
:100F800088421ED0274988421FD02749884244D131
:100F9000E079217A0902014324488289921C914216
:100FA0003BD1217B012938D1617B002935D1012139
:100FB000017432E0E07801282FD11C48002101742F
:100FC0002BE01A480121C16227E0E079217A090269
:100FD0000143E61D631D1548C289521C91421CD174
:100FE0000293007C00280AD0607A25460A352946FB
:100FF000FFF76CFE307871780902014301E0254665
:101000000A35029802784078637A6C4628C4000258
:10101000104300221346FFF782FA03B0F0BDC0462A
:10102000160C0000130C0000010C00002C1900200D
:10103000002101607047026801200021002A00D0D1
:101040000846704702680A600160704702680A60DB
:101050000160704702680A600268126802600868EE
:101060000021016070470000F0B503AF81B00D466C
:101070000446206D00260522314600F037FC206D25
:10108000AAB2401D0A4900F039FC206D28189021B1
:101090004171206D28188671226D01206946086013
:1010A000E81D83B28321204601F0C4FB01B0F0BDEE
:1010B000BC1D0020002070470020704700207047B2
:1010C00080B500AF022101430348814202D10020D4
:1010D00001F0DCF8002080BD03000080D0B502AF35
:1010E0000024204601F0D2F82046D0BD80B500AFE4
:1010F0000649884205D00649884204D100F00AF822
:1011000001E000F047F8002080BDC04601000080EB
:1011100002000080F0B503AF8BB0194EB078002408
:101120008028204616D1711D03A8029020252A464A
:1011300000F0E4FB684660C0032251021448784482
:10114000029B01F081F83178F0220A4032700D499B
:1011500001220A709021315431184C70811C0A48C8
:101160000078002803D00948FFF77EFF03E089B22A
:10117000202000F0A5FE00F0E7F800200BB0F0BD45
:10118000BC1D0020A41900204F1F0020A81900201A
:10119000BE32000080B500AF0C48012101700C4840
:1011A00069210170852141700A480078002804D027
:1011B00009480221FFF758FF03E02020022100F038
:1011C0007FFE00F0C1F8002080BDC046A4190020B9
:1011D000BC1D00204F1F0020A8190020D0B502AF71
:1011E0001049884216D01049884218D100F020F8E2
:1011F000002812D00D4C0120A060206800280ED0DD
:10120000E168002903D08847002808D0206800F052
:10121000F5FD04E0FFF7BEFF01E000F05FF80020FD
:10122000D0BDC0460100008002000080901900205F
:10123000F0B503AF81B02348056823494A195379B3
:101240000024002B3AD0941D6E1C009500221F4DE7
:1012500004E0AB54B1180160A35C521CD9B2002960
:1012600008D00A2902D0302AF3D903E0009989185E
:10127000491C016000200090A8540124260201F0BE
:1012800023F830421AD0124E38223046009900F02E
:101290002DFB02203070042070800E480168B18060
:1012A00005229201F2800F223281009A32610A4AAD
:1012B000726103223283F56113310160204601B06F
:1012C000F0BDC046741A0020BC1D00205C1900202F
:1012D0007C1A0020781A0020F9F9F900F0B503AF64
:1012E00081B01048022505700124260200F0ECFFB1
:1012F0000D49304208D10F48784404220E4B7B44FC
:10130000002535C10B6008E008487844084A7A4453
:10131000002321C10C604B608A6000F06FFD01B0BA
:10132000F0BDC046B41A002090190020BA2E00006B
:10133000A3FDFFFFF42B0000EBFDFFFF80B500AF26
:1013400000F05CFD80BD0000F0B503AF81B00E4839
:101350000024047001252E0200F0B6FF0B49304234
:1013600005D10D48784403220C4B7B4404E0084827
:1013700078440422074B7B4425C10C604B6000F08D
:101380003DFD01B0F0BDC046B41A00209019002008
:10139000742D00003FFDFFFFE02A000053FDFFFF1A
:1013A000B0B502AF05460F2028400024012813D015
:1013B000022813D1002908D00B4800F0A1FF80209B
:1013C000054209D000F070FE06E041208100064889
:1013D000002200F0CFFF04462046B0BD034800685D
:1013E000022102F09BFCC046BC1D00206C1D0020A9
:1013F000F0B503AFABB00D4601904A4C2068299080
:101400001FAE304602F07EFCB08526602646464977
:10141000084215D01FA900228A85299931600F2121
:101420000903014009221203914203D0032252030F
:1014300091422AD1FF21090202460A40110A2AE0FC
:10144000019C3B4D2878E0285DD1687802282CD09B
:10145000FF2850D004285BD102AC3B4979442822B4
:10146000204600F04BFA0CAD0120294622460346E7
:1014700000F0CCFE08352E484122294600F03EFA05
:1014800030680921090302F049FC284908400D2170
:10149000C9020843010A2A68254B99542968C918CA
:1014A00048702868801C286025E0A87880210143C6
:1014B000802932D11F4E3178002905D01E4800F016
:1014C0004BFE00203070A8781C4900220A601C499D
:1014D0003C230B60297949194A710028114E02D02A
:1014E000FFF718FE03E0FFF7A3FE00F02FF82068D7
:1014F000102101432160299830601FA9898D00299E
:101500000DD12BB0F0BD372041021FA802F006FC20
:101510006D2001021FA802F001FC1FA8094902F07A
:10152000FDFBC0466C1D0020FFFF0000FF07000010
:10153000BC1D0020A4190020081A0020741A0020E5
:10154000781A0020866A0000A02F0000B0B502AF14
:101550000E4801240470250200F0B6FE0C49284212
:1015600008D10E48784405220D4B7B44002535C137
:101570000B6007E00748084A7A44002311C10C6059
:101580004B608A6000F03AFCB0BDC046B41A00203F
:10159000901900207C1A002041FBFFFF682A000000
:1015A0006FFCFFFFF0B503AF91B0002510950F95CC
:1015B0000E95294E0DA8058030680B9001AC204691
:1015C00002F0A0FBA08534602449084211D001A993
:1015D0008D850B9931600F21090301400922120307
:1015E000914203D003225203914216D10DA90880E3
:1015F0001AE00F98109000240F940E981099C0B222
:1016000089B200F05DFC10900E94109800281FD055
:101610000EA80FA9FFF7ECFE12E0114908400D21BA
:10162000C90201430DA801800D98000A0F990D4AC7
:1016300050540D980F99891848700F98801C0F907E
:101640000B98306001A9898D0029B3D002F066FBA8
:101650003068054902F062FB6C1D0020FFFF0000AE
:10166000FF070000BC1D002082690000F0B503AF39
:1016700083B0454A1078401F092878D8800002A11D
:10168000405840188746C04628000000E600000089
:10169000E6000000E6000000E6000000E6000000B2
:1016A000E60000003A00000062000000AC0000000C
:1016B0003648006900285AD0D178490800F0D6FB96
:1016C00055E03248818802910168D0799379557943
:1016D0001679D2786C46226032022A431B020343F9
:1016E0000846029900F013FB41E0294800780128E0
:1016F00005D101252C0200F0E7FD204228D1234C22
:101700006068A168814232D2206800282FD0E26848
:10171000002A25D038234B43C0189047A1680028E1
:101720001DD1491CA1602068002820D06268914228
:10173000EDD31CE0154C0120A0602068002816D0D5
:10174000E168002911D08847002810D020680CE0FB
:10175000FFF76EFD002813D00C4CA560EDE7206864
:101760004A1CA26038224A43801800F047FB00F070
:10177000E5FD002801D100F071F9012003B0F0BDB2
:10178000FFF7ACFDF3E7C046B51A00209019002022
:10179000B41A002001480021016070476C1D002030
:1017A000F0B503AF83B002920C460546474EB442F3
:1017B00011D00195454E40253046294602F0BCF92E
:1017C00002984028024600D32A463046214600F0BF
:1017D00095F83E4E019DB07805286DD8800002A195
:1017E000405840188746C0461800000024000000FA
:1017F00032000000D0000000D000000044000000D3
:101800000020B07170713071F07003E0F01C0421A1
:1018100000F084FC4021304601E02C484021A847DC
:101820002B4900200860C0B203B0F0BDF078284C0E
:101830002168090A8842F3D130792168C9B2884207
:10184000EED1244802990D18206800280AD02248B9
:101850000168AAB28A4200D9056820480068711D53
:10186000AAB21BE00B46B0797179090201431C480A
:1018700001604121890002688A42D1D80168164876
:1018800001601649174A0A6017495D18A9B2026833
:10189000914200D90568F11DAAB2124800F02EF855
:1018A000A8B20E490A6812180A600B490A68101A91
:1018B00008602068401C206007480168012000295A
:1018C000B1D10348002101600220ACE7701D002067
:1018D000B01D0020FBFF0000B81D0020C01E00202E
:1018E000B41D0020BC1D0020F9FF0100002A04D017
:1018F000521E93B2C154002BFAD1704710B58842E2
:1019000008D9002A10D0521E93B2CC5CC454002BCC
:10191000F9D109E0002A07D00B780370401C491C5C
:10192000521E024B1A42F7D110BDC046FFFF000005
:101930000148002101607047B01D0020F0B503AFE1
:1019400085B0029301920C460390002C45D0324E94
:1019500000203060314932480860324A901C3E21F4
:10196000154602F0E9F82A46052090703068000A12
:10197000D07030681071A1B23068002809D03B20C7
:101980003B2900D80846C4B20491244D2968501D53
:101990000BE0200A507194713920392900D808468B
:1019A000C4B204911D4D2968D01D16462246FFF78A
:1019B000A5FF30462A46116809192546164E1160C2
:1019C0003168491C316040210446039A9047224601
:1019D0000498441B14480442C0D10F4800240460FA
:1019E0008020029D054201D000F05EFB20200542D0
:1019F0000FD10C4C019D40212046A847C2B2402A7D
:101A0000F9D803982146FFF7CBFE0228F3D1074807
:101A10000468A0B205B0F0BDB01D0020C01E0020BB
:101A2000BC1D0020701D0020FFFF0000B41D002021
:101A3000B0B50023002A0DD0074BD3189BB2CC5C65
:101A4000C55C521EA542F4D00020C0430123A5422C
:101A500000D80346D8B2B0BDFFFF000080B500AF8C
:101A600000F06CFC00280BD10648602101700021B9
:101A7000417002228270C1700171052100F040FCAA
:101A800080BDC046B51A0020D0B502AF1748C07857
:101A9000401E072828D8800001A1405840188746DA
:101AA0002000000032000000480000003A00000062
:101AB000480000004800000048000000420000000C
:101AC0000B4C0121204601F0C9FB204601F0AFFB81
:101AD000D0BD074801F0D3FBD0BD054801F0C1FBE4
:101AE000D0BD034801F0C5FBD0BDC046B51A0020EB
:101AF000501F00207F2101400148405C7047C046D4
:101B0000C41E0020D0B502AF10480179042908D0C6
:101B1000022913D0012910D1811D0E4801F0B9FA14
:101B2000D0BDC1787F2211404379094C6354C178FC
:101B30001140821D074801F0DBFAD0BDC2787F2139
:101B40001140821D034801F014FBD0BDB51A0020DE
:101B5000C41E0020501F0020F0B503AF81B00C461A
:101B60000646FF2C31D81A4D50202870E01C010A7F
:101B70006970A8708220E870202028716C7106219D
:101B8000284600F0BDFB3046214600F0B9FB02E0DC
:101B90000220FFF76BFD00F0D1FB002801D1FFF719
:101BA0005DFF4B2081000022284600F0E3FB2978EE
:101BB0000628EDD1E8781029EAD129798228E7D1E1
:101BC0000229E5D16879A042E2D101B0F0BDC0465A
:101BD000B51A002080B500AF0D4A907851780902FF
:101BE000014313780020142B08D0102B0AD00F2BA0
:101BF0000DD104290BD1FFF747FF07E0D01CFEF7FA
:101C00006FFD03E0062902D3FFF77CFF012080BDB2
:101C1000B51A0020D0B502AF062000F027FA0A4816
:101C2000002404700948048009480480094804809D
:101C300009480470FFF77CFE084804600848046007
:101C400008480460D0BDC046CA1E0020CC1E00203B
:101C5000CE1E0020D01E0020D21E0020D41E002048
:101C6000D81E0020DC1E0020B0B502AF0D46044691
:101C7000206B002806D000F0F1F901462046884785
:101C8000002808D0002D03D02046A847002802D005
:101C90002046FFF753FBB0BDB0B502AF8EB00C4687
:101CA0000546686B002806D000F0D8F901462846A2
:101CB0008847002811D0684638222946FFF71EFEC3
:101CC000686A0490A86A0590002C03D02846A047B3
:101CD000002802D06846FFF731FB0EB0B0BDB0B5AA
:101CE00002AF0D460446E06A002806D000F0B6F9BF
:101CF000014620468847002808D0002D03D0204602
:101D0000A847002802D02046FFF718FBB0BDB0B5A9
:101D100002AF82B000246D466C60069C2C6000F01F
:101D200003F802B0B0BD0000F0B503AF87B0039375
:101D30000492059100294BD00D9902910C990191C3
:101D400000252D4A06952C4638266E4385191268C3
:101D50000123954200D0069B069382570146002A34
:101D600019DA2022A85C0222AB5E1A1A049EB24243
:101D700011DCC218EB88D218049B93420BDA0422C0
:101D8000AE5E321A039B9A4205DC32182B89D218B8
:101D9000039B93420EDB641CE5B205988542164A0C
:101DA0000846D1D3FF200699014211D010680028BF
:101DB00007D10DE0104A106885420BD0106800284A
:101DC00008D0106802991446FFF74EFF00202060EB
:101DD00007B0F0BD0198012808D00228F8D10020F2
:101DE000106028460299FFF77AFFF1E71560284650
:101DF0000299FFF751FFEBE7D41E0020F0B503AFC7
:101E000081B00446E569002D1CD01648854203D3F5
:101E1000284600F023F90546284601F08DFF0646C6
:101E200011486521017031461C310A0A42708170E7
:101E3000032100F065FA1C21204600F061FAB1B2DE
:101E400028460BE0084865210170002141701C25DF
:101E50008570032100F054FA2046294600F050FA1C
:101E600001B0F0BD0000D0C0B51A0020F0B503AF3E
:101E700081B00246002A1CD00F4C2068884203D152
:101E80000E4803685B1C0360206808430B4D2B68F9
:101E9000002901D0206005E0002626602E60012682
:101EA000F607304324688C4201D00021296019468E
:101EB000904701B0F0BDC046D81E0020DC1E0020B7
:101EC000F0B503AF81B004460F20044204D0204691
:101ED000FFF766FA054693E01026264000292CD02D
:101EE000002E2AD14848007807280BD0002804D0BB
:101EF0002046FFF755FA00280AD044480068092117
:101F000001F00CFF4848784400222023FFF716FD1B
:101F100000253D4805703E4805803E4805803E4806
:101F200005803E4805702020044269D1FFF796FDE8
:101F30008020044201D000F0B7F8002E10D14020DC
:101F4000044251D1304800210170314801803148AC
:101F50000180314801803148017001E0FFF77EFDCA
:101F60004B2081002F4C002520462A4600F002FA23
:101F7000C11EA27863781B021343994213D12278C1
:101F80000F2A0BD0102A18D0142A1FD1E01CFEF7FC
:101F9000A7FB204801880029E0D01FE0042802D1D7
:101FA000FFF772FDDAE71848002101701848018038
:101FB0001848018018480180D0E7062820D3FFF791
:101FC000A1FD144801880029C8D012E00220FFF7C3
:101FD0004DFB00F0B3F90028C2D1BFE70F49022240
:101FE0000A700949012209E00A4800880C4945188D
:101FF00006E00A4901220A70034907220A7005888F
:10200000A8B201B0F0BDC046CA1E00206C1D002061
:10201000CC1E0020CE1E0020D01E0020D21E00208C
:10202000FBFF0000B51A00204FFCFFFFD0B502AF48
:102030000446002902D001F085FD02E0114601F0BE
:102040007BFD2046D0BDD0B502AF0446CBB21146D1
:102050001A4601F07FFD2046D0BD00007A460249B5
:10206000C91C891A401A70475D20D0C080B500AFE6
:1020700084B00A4901910A490A680292039001A8B2
:10208000004601DF00460748019A824201D104B0B0
:1020900080BD0868042101F041FEC04637010060A0
:1020A0006C1D0020C601009080B500AF82B00948C9
:1020B00000900948016801916946084601DF014620
:1020C0000649009A8A4201D102B080BD006804210D
:1020D00001F024FE000200606C1D0020F10200905F
:1020E000D0B502AF86B00A4B01930A4B1C6802942C
:1020F00003AC07C401A8004601DF00460648019969
:10210000814201D106B0D0BD1868042101F006FE5D
:102110007F0300606C1D0020BC03009080B500AF01
:1021200084B00A4A00920A4A13680193029003910C
:102130006846004601DF00460649009B8B4201D1FC
:1021400004B080BD1068042101F0E8FD2C0500609A
:102150006C1D00206705009080B500AF84B00A496F
:1021600001910A490A680292039001A8004601DF22
:102170000046074A019B934201D104B080BD086824
:10218000042101F0CBFDC046DB0700606C1D002080
:1021900064070090B0B502AF86B00A4C00940A4CB8
:1021A0002568019502AD0FC56846004601DF00466F
:1021B0000649009A8A4201D106B0B0BD20680421C8
:1021C00001F0ACFD352600606C1D0020F02600906B
:1021D000B0B502AF86B00A4C00940A4C2568019550
:1021E00002AD0FC56846004601DF00460649009A69
:1021F0008A4201D106B0B0BD2068042101F08EFDF5
:10220000ED2700606C1D0020AE270090B0B502AF36
:1022100086B00A4C00940A4C2568019502AD0FC5A2
:102220006846004601DF00460649009A8A4201D10D
:1022300006B0B0BD2068042101F070FD2E280060BA
:102240006C1D002074280090B0B502AF88B00C4C13
:1022500000940C4C2568019502AD0FC50C980690B2
:102260000D9807906846004601DF00460649009A2F
:102270008A4201D108B0B0BD2068042101F04EFDB2
:10228000013200606C1D0020F332009080B500AF79
:1022900084B00A4901910A490A680292039001A890
:1022A000004601DF00460748019A824201D104B08E
:1022B00080BD0868042101F031FDC046E15D006089
:1022C0006C1D00206F5D009080B500AF82B00948A2
:1022D00000900949086801906846004601DF004601
:1022E000064A009B934201D102B080BD08680421D8
:1022F00001F014FDD66200606C1D00204462009065
:1023000080B500AF84B00A4A00920A4A136801936C
:10231000029003916846004601DF00460648009996
:10232000814201D104B080BD1068042101F0F6FCA7
:102330001C6600606C1D0020F366009080B500AF45
:1023400082B0094800900949086801906846004633
:1023500001DF0046064A009B934201D102B080BDD6
:102360000868042101F0DAFCCF6700606C1D0020D2
:102370007F670090D0B502AF86B00B4B01930B4B3B
:102380001C68029403AC07C401A8004601DF0046A4
:102390000749019A8A4202D180B206B0D0BD1868BE
:1023A000042101F0BBFCC046D16800606C1D002018
:1023B0002B6800900448002101700448012202703B
:1023C000034801707047C046E01E0020E11E002057
:1023D000E21E0020F0B503AF81B015460C4606465C
:1023E000012D04D10F4800214022FFF77FFA0D484C
:1023F00031462246FFF782FA0B480178002901D0C6
:1024000000210170032D06D0012D08D1054840217F
:10241000FFF7A2FB03E030462146FEF70BFD01B0BB
:10242000F0BDC046E31E0020E11E002003480178F5
:10243000002901D1012101707047C046E21E002031
:1024400080B500AF82B00499402906D101216A46C7
:1024500011608321074A7A4405E001216A46116030
:102460008321034A7A44022300F0E4F902B080BDDC
:10247000D01D0000E01D0000F0B503AF87B00025BF
:10248000069505950C9C402C09D8012269460A60E6
:102490008321284A7A44022300F0CCF946E0042242
:1024A000114307293DD10194029040201E5C039303
:1024B000002E11D0039C41341F4878440490E8B2A8
:1024C000032101F033FB605D049B595C4140615581
:1024D0006D1CE8B2B042F2D14520039D285C463025
:1024E00001998142029C09D001206946086083213C
:1024F000124A7A440223204600F09CF941350C48E8
:1025000029463246FFF7FAF906A805A9FEF770FF3B
:1025100010200699014209D105992046FEF7A4FD35
:1025200004E08A210122034600F0AAFB07B0F0BDB7
:10253000BC1D0020A01D00007E1D0000491D0000E4
:1025400080B500AF82B00499002907D001216A4606
:1025500011608321074A7A44022306E001216A467A
:1025600011608321044A7A44082300F063F902B021
:1025700080BDC046DE1C0000D71C0000F0B503AFD4
:1025800083B01D460E460446284600F0C3FB0128D2
:1025900006D10B21012220462B4600F071FB40E0C2
:1025A000284600F0A7FB012804D102A80421FFF768
:1025B000B5FD04E002A804222946FFF79FF9206D2B
:1025C00008223146FFF79AF9206D083002A904224B
:1025D000FFF794F9206D02210173206D00214173F2
:1025E000206D01228273206DC173206D0174284615
:1025F00000F080FB012805D1FF2104222046FFF7CF
:1026000075F904E002A904222046FFF777F90120BA
:10261000E076226D6946086086211123204600F08D
:1026200009F903B0F0BD0000F0B503AF83B00B793A
:102630001B044C7924021C438B792343234C14192B
:10264000A4B28D7802954D780E78A34204D0204C28
:10265000121992B2934216D1002E06D001216A4679
:10266000116083211C4A7A442BE0032D12D0022DE5
:1026700018D0012D1FD199B26A46116000210A4677
:10268000FFF7DEFE20E001216A4611608321114A36
:102690007A4416E099B26A46116000210A46FFF7B3
:1026A0004FFF11E09AB26B461A60CB1D00220299CF
:1026B000FFF7E2FE08E001216A4611608321074A24
:1026C0007A44022300F0B6F803B0F0BDF7FF000033
:1026D000F9FF0000A41B0000DF1B0000871B0000A7
:1026E000D0B502AF82B014468A784B781B021343F0
:1026F0000A78812A09D0832A12D0862A26D1C91CB9
:1027000000222346FFF73AFF20E0302200248454C1
:1027100001226C462260CA1C812100F08BF815E072
:102720003022002484545C22825C002A08D1027C7E
:10273000002A05D006210022034600F0A1FA05E098
:1027400001220274C91C1A46FFF76EFF02B0D0BD09
:10275000D0B502AF82B00446282001212154E07A8E
:10276000012815D13020215C20463030002927D0A7
:10277000616AE26A5118E162124A914220D3002153
:102780000170231D05210122204600F079FAE07A2C
:10279000032815D13120205C002811D0606A616BBC
:1027A00008186063074988420AD3002060636946BD
:1027B00008608221044A7A440123204600F03AF856
:1027C00002B0D0BDF50100008E1B00000021817217
:1027D0000174C27E002A00D0C1767047084979444E
:1027E0004161084979447D229200016242620021E0
:1027F00081720174C27E002A00D0C17601837047C5
:10280000FFFEFFFF69FFFFFFD0B502AF037B00248F
:10281000032B03D0012B03D1402401E05E24045B91
:10282000944206D3084611461A46FFF7D3FDFFF738
:10283000FDFDD0BDF0B503AF81B0069C012C01D1E8
:10284000032585723825012646553925002646552B
:10285000C26340228652422283524422815445213F
:10286000445400F002F801B0F0BDF0B503AF8BB0F6
:102870000A903921465C01465E310291014644319D
:1028800001910446403403940146423104910146CB
:1028900039310591FF20079003250121064200D020
:1028A0000D460A98C17A04220023012900D01A4655
:1028B00015434022012901D0029A12882846151A90
:1028C0002288049B1B889A1AAA4200DC15460995A7
:1028D0002A1808920690002501290A9B0ED1D86C6F
:1028E000002140221C46FFF701F8E06C0425214638
:1028F0002A46FFF703F8234605980678079806420C
:1029000004D0D96CAAB2FF368E5412E0D86C01996B
:102910000978AAB281540120284381B2DA6C049D5F
:102920001C466B7853542346401C80B2D96C2A78DD
:102930000A54039CD96B0029099D09D0AAB2D86C0E
:10294000069E80191E462388C918FEF7D7FF334616
:102950001A7BD86C089989B21E46FFF73BFD316C93
:102960004A192280059B1878461C1E7092B2090CE9
:1029700091428FD1FFF75AFD382100200A9A505416
:102980004521515C002905D090721074D17E002938
:1029900000D0D0760BB0F0BDF0B503AF87B01C46C9
:1029A000164605910546002002900690012C04D1A0
:1029B00006A804220599FEF7A1FF2C73FFF7FAFC85
:1029C0005C20285C00280BD0A87AFE210140022957
:1029D00006D10621002206AB284600F051F942E05C
:1029E00003952046049004240128324600D0029C1E
:1029F000012325461D43AA422DD3059908570E19D8
:102A0000002824DB02210C43A24224D3019616465F
:102A1000039CE17A049A914262D1A17A012932465B
:102A200067D10499012900D0B4E01646009304222E
:102A300005982146FEF7FCFF002800D1A6E00621FC
:102A4000012206AB204600F01BF925468DE003204D
:102A5000204382420AD28521012206AB039D2846EB
:102A600000F00EF9049C012C7FD08DE00498012821
:102A700015D130200399085C002810D00398011D5F
:102A800006A80196164604220093FEF7D1FF3246AF
:102A9000019E009B002802D0307886285ED10398E2
:102AA000807A012805D1049801282BD13078862816
:102AB00028D10196022020430599085C495D0D024A
:102AC00005435420039E305AC01E85421CDD03215D
:102AD000012206AB304600F0D3F83546049CC2E72D
:102AE0008D21012206AB204600F0CAF82546049C41
:102AF000B9E7049801282AD1012125462846FFF785
:102B000065FE32E00421A7E701980078812804D00F
:102B1000862862D0832800D0A0E005920093049814
:102B200001285FD106A8544979440422FEF780FFAA
:102B3000002807D006A8514979440422FEF778FFFF
:102B400000284FD10B21012206AB35460AE00421B3
:102B5000012206AB204600F093F815E00621002282
:102B600006AB039D284600F08BF83020285C2C46ED
:102B70003034002808D0291D06A80422FEF758FF8B
:102B8000002801D10298207007B0F0BD01980078AC
:102B9000009B3246617BC0B288420DD10093561B28
:102BA000208981195422A25AD21E9142254605DD60
:102BB0000321012206AB52E7042192E7296D081890
:102BC0000199491C3246FEF799FE288986192E8103
:102BD000687B401C6873049817E005920093049882
:102BE000012841D106A904223046FEF787FEF5816F
:102BF0003546002068730598061B286D01993246FA
:102C0000FEF77CFE2E810498E8720128009BB0B28A
:102C100001D1E9890AE0E989CA1C904206D9032159
:102C2000012206AB284600F02BF8ADE7C91C88420C
:102C30000CD20020E862AB7230202B54281D06A96C
:102C40000422FEF75BFEFFF7F1FB9DE70220A8726E
:102C5000296D6B6906AA2846984795E7012106ABBE
:102C6000354628460A46FBE6012106AB30460A46B1
:102C700000F006F888E7C04621170000151700008D
:102C8000F0B503AF83B00093029201910446E06C6B
:102C9000002540222946FEF729FEE07A01282E462B
:102CA00005D1E06C042600993246FEF727FEE06C61
:102CB000F1B2BF224254012031460143CAB2E36C53
:102CC0009D54491CC9B2E26C505403203043C1B238
:102CD000E26C019B5354401CC2B2E16C2046FFF7EA
:102CE00093FD0298012803D101212046FFF76EFDD4
:102CF00003B0F0BD80B500AF054979440422FEF76A
:102D000097FE014601200022002900D0104680BD18
:102D10004F15000080B500AF054979440422FEF745
:102D200087FE014601200022002900D0104680BD08
:102D3000331500000249002008600249086070470E
:102D4000241F0020281F0020D0B502AF06484F21C5
:102D5000017000244470012181700221C17004219E
:102D6000FFF7CEFA2046D0BDB51A0020F0B503AF6C
:102D700083B001AD4F262E7000246C700220A87025
:102D80000320E8702C7105212846FFF7B9FA2E7050
:102D90006C700120A870E87004212846FFF7B0FA93
:102DA000204603B0F0BDD0B502AF82B001A84F21DC
:102DB000017000244470012181700221C17004213E
:102DC000FFF79EFA204602B0D0BD0000F0B503AF79
:102DD00083B01A48002505601948056001AE4F20F0
:102DE000307075700520B0700420F07001243471CB
:102DF0007171B571032A19D8910002A289588918F6
:102E00008F46C04610000000160000001C000000A5
:102E10002200000001A8847108E001A9887105E082
:102E200001A8032101E001A80221817101A8C37159
:102E30000821FFF765FA002003B0F0BD241F002031
:102E4000281F0020D0B502AF82B068464F22027022
:102E500000244470052282700422C2700122027193
:102E600041718471C4710821FFF74AFA204602B00B
:102E7000D0BD0000D0B502AF82B00C4668465021EC
:102E800001700021417003228270C47040220271DF
:102E900041710621FFF734FA7F212140012088404B
:102EA00080210C4201D1054900E003490A68024330
:102EB0000A60002002B0D0BD241F0020281F00207F
:102EC000B0B502AF82B00C466846502101700021B7
:102ED000417003228270C470802505714171062102
:102EE000FFF70EFA7F20204001218140C8432C4289
:102EF00001D1054900E003490A6802400A60002048
:102F000002B0B0BD241F0020281F002080200142F5
:102F100005D17F20014001228A40064804E07F203D
:102F2000014001228A40024800681040C0B2704748
:102F3000241F0020281F0020D0B502AF82B06846B1
:102F40004F22027000244470022282700322C27059
:102F500001710521FFF7D4F9204602B0D0BDB0B50C
:102F600002AF82B01C461546684650220270E21C31
:102F7000130A43708270C1702021017144710621CF
:102F8000FFF7BEF928462146FFF7BAF9002002B044
:102F9000B0BDD0B502AF82B06846502303700024A4
:102FA000447003238370C170302101714271062186
:102FB000FFF7A6F9204602B0D0BDF0B503AF81B04F
:102FC00015460E4604460220002C10D041208100F8
:102FD000204600F0B1FD002E01D0F0202650DC206C
:102FE0000121215425702046FFF7A4FE0020C0B225
:102FF00001B0F0BDD0B502AF0446DC200121215460
:10300000F4202058002806D04068FFF727F8024631
:103010002179204690472046FFF7C5FE2046FFF75E
:1030200093FE0020D0BD0222002902D0F42281505C
:103030000022D0B2704780B500AFFFF797FE0020A6
:1030400080BDB0B502AF0C460546F42028580028D4
:103050000CD00068FFF702F8024628462146904748
:1030600001460220002900D10846B0BD0220B0BDB3
:10307000B0B502AF0C460546F4202858002806D00B
:103080004068FEF7EBFF02462846214690470020A5
:10309000B0BDB0B502AF04462546E835284600F07D
:1030A00016FBD42001212150EE20205AD821605057
:1030B000E820215C1F200840022808D001280BD0FE
:1030C00000280ED12046294600F0ECF80EE02046FC
:1030D000294600F07DFA09E02046294600F051FA21
:1030E00004E0802001402046FFF7C4FE0020B0BD70
:1030F000F0B503AF81B015460E460446002E10D041
:10310000F42020588069002830D0DC21615C03293C
:103110002CD1FEF7A3FF0346204631462A469847A6
:1031200024E0D4202058032820D180202058E16FAB
:1031300081420AD9091AE167814200D301468AB265
:103140002046294600F04BFC10E0F420205800698E
:10315000002808D0DC21615C032904D1FEF77EFF42
:10316000014620468847204600F041FC002001B07F
:10317000F0BDF0B503AF81B00D460446002D11D06F
:10318000F420205800284FD0406900284CD0DC2182
:10319000615C032948D1FEF761FF024620462946BB
:1031A000904741E0D4202058022836D1E069266AB1
:1031B000B04208D9801BE06183B2204611461A460E
:1031C00000F003FC29E0A5692846314600F0AEFC7A
:1031D000B5420FD300290DD1D82020582646D83625
:1031E000854207D20025204629462A4600F0EDFBFD
:1031F000356012E0F420205800280BD0C068002869
:1032000008D0DC21615C032904D1FEF727FF0146C9
:1032100020468847204600F0F7FBE020205CE034A1
:10322000012801D100202070002001B0F0BDD0B5F0
:1032300002AF04468020402121502162DC20012180
:103240002154F4202058002806D04068FEF706FFDD
:1032500002462179204690470020D0BD017400200D
:103260007047DC21425CDD23C2540422425400201A
:103270007047DD21415CDC22815400207047D0B5CD
:1032800002AF0446DC20205C032809D1F42020583A
:10329000C069002804D0FEF7E1FE014620468847B9
:1032A0000020D0BDF0B503AF81B00D46044668786C
:1032B000092800D911E1800001A140584018874633
:1032C000280000005E0000001A0200007A000000E2
:1032D0001A020000EC0000002E0100001A0200009B
:1032E000A2000000C2000000DC20205CFE210140A2
:1032F000022900D0F1E00120E060E42021582546B9
:103300000C350320002905D0204600F07DFBE16844
:1033100002200843E06002222046294608E1DC2022
:10332000205CFE210140022900D0D6E068880128F7
:1033300000D0FFE0E420002105E06888012800D0EB
:10334000F8E0E42001212150F42020588068FEF7A5
:1033500085FE0246204629469047204600F047FB5E
:10336000E8E0E888012800D0B7E0DC20205C0328F2
:103370006AD0022800D0B0E00020A06021460831C9
:1033800063E0A978784D2970022900D3A5E0DC20FC
:10339000225C2046DC30032A59D0022A00D09CE06F
:1033A0000029DAD06160032202705CE0A88800285E
:1033B00000D092E0E888002800D08EE068887F2660
:1033C0000640DC20205C2546DC35032800D184E063
:1033D000DE202654F1B22046FFF7AEFD204600F075
:1033E00006FB002E00D1A8E002202870A2E0688829
:1033F000010A491E0E2970D8890002A2895889182D
:103400008F46C0463C000000B40000006E00000083
:10341000D6000000D6000000C2000000D00000006E
:10342000D6000000D6000000D6000000D600000044
:10343000D6000000D6000000D6000000A00000006A
:10344000F0202058006830E0211D01226FE00029A3
:103450004CD06068814200D17FE7C1B22046FFF7BF
:1034600007FE297861602046FFF7EBFD022834D083
:1034700073E7C0B2052830D8800002A14058401838
:103480008746C04618000000BC000000C4000000D1
:10349000CC000000D4000000DC000000F020205828
:1034A000406802E0F0202058C069FEF7D7FD0246D0
:1034B000207C694690472DE0F4202058217C00298B
:1034C0001ED0C06A21E0207C002806D1F4202058BC
:1034D000406B1AE0207C002814D080212046FFF7A2
:1034E000C9FC00212046FFF7C5FC23E00222027040
:1034F00061602046FFF7BCFD204600F078FA2CE71B
:10350000806A02E0F4202058006BFEF7A7FD014618
:1035100068468847014668460288002A0AD0E8883B
:10352000002807D0824200D3024668460280204627
:1035300000F03CFA002001B0F0BD01202870F9E74E
:10354000F02020588068B0E7F0202058C068ACE731
:10355000F02020580069A8E7F02020584069A4E72F
:10356000F02020588069A0E72C1F0020D0B502AFC2
:1035700004468021FFF77EFC00212046FFF77AFCFD
:10358000D0BDB0B502AF0D460446DC20205C032858
:1035900014D1A888FE21014001290FD8F420205819
:1035A0008068FEF75BFD0246204629469047E88882
:1035B00000280BD1204600F01AFA07E080212046AF
:1035C000FFF758FC00212046FFF754FC0020B0BD57
:1035D000F0B503AF81B00E4604463088602101404B
:1035E000202909D1F42020588068FEF737FD0246D3
:1035F00020463146904767E03579000A002813D00D
:1036000001281BD003285FD1DC20205C032819D1BE
:103610007088002832D18020284380282ED0204670
:103620002946FFF727FC29E0DC20205C032832D064
:10363000022810D17F2005420AD145E0DC20205C21
:10364000032811D0022806D18020284380283BD0AF
:103650002046294605E080212046FFF70BFC00218B
:103660002046FFF707FC2FE0708800282CD17F2030
:1036700005420CD020462946FFF722FCF4202058B2
:103680008068FEF7EBFC0246204631469047204614
:1036900000F0ADF918E0264614362046743080213B
:1036A0000D4200D1064620462946FFF72FFC012196
:1036B000002800D101467F200540280131503118F3
:1036C0000222204600F072F9002001B0F0BD0A7815
:1036D00002704A7842708A78CB781B021343438089
:1036E0000A794B791B02134383808A79C9790902CD
:1036F0001143C18070470000F0B503AF83B00D46A1
:10370000044602A80026068001A8067028886021C9
:103710000140000A002923D020294BD1801E09280E
:1037200018D8800001A14058401887466400000066
:1037300064000000280000002800000028000000AD
:103740002800000028000000280000005C000000A5
:103750005C00000020462946FFF708FF022629E00A
:103760000B2811D00A2813D0062823D16888000A14
:10377000002621280FD022283246314617D102A830
:10378000009000F08FF80AE0204600F030F911E0D8
:1037900001A901220BE002A8009000F07BF8009B39
:1037A00001461A88E888824200D302461A802046E1
:1037B00000F0FCF8F0B203B0F0BDF0B503AF81B09B
:1037C00004468221022540262A463346FFF7FEFAA8
:1037D000204629462A463346FFF7F8FA204629466E
:1037E0003246FFF7D6FB002001B0F0BDD0B502AFE6
:1037F00004468221FFF726FB02212046FFF722FB29
:103800000020D0BD12200880014878447047C0468F
:10381000080B000004200880014878447047C04627
:10382000800A00000E200880014878447047C04696
:10383000620A00000E200880014878447047C046A4
:10384000660A000002200880014878447047C0469C
:10385000540A00000E200880014878447047C04692
:10386000320A00000E200880014878447047C046A4
:10387000220A00000A210180014878447047C046AE
:103880008E0A000029210180014878447047C04613
:10389000460A000009210180014878447047C0466B
:1038A000620A000022210180004870472D1F00207D
:1038B000F0B503AF81B01446022540222946FFF738
:1038C00068FB0E4806782846FEF714F90246002EDB
:1038D00005D00B4801232146FFF75EF80AE00B48AC
:1038E00078442146FDF75CFF022803D105480068B3
:1038F00005490880002001B0F0BDC0464F1F0020E0
:10390000A8190020B41D0020CE1E002075E2FFFF84
:10391000F0B503AF81B00D4604461C4E20497944F2
:1039200022223046FDF7EAFF19481A49002D00D13E
:1039300008467070000AB0700120002D00D12846A2
:103940001549087041208500144800212A46FDF7DA
:10395000CDFF002C15D0114C0026204631462A46BA
:10396000FDF7C4FF0F49794420463246FFF725FB97
:103970000D4979442046FFF756FB2046FFF75BFBD5
:1039800002E00648FFF736FB01B0F0BD2D1F002016
:10399000D0F10000A0FF00004F1F0020501F0020AA
:1039A00090090000BE090000E2080000D0B502AF97
:1039B00013460A46D421022444508361C361002483
:1039C0002146FFF7CCFA2046D0BDD0B502AF134652
:1039D0000A4600242146FFF7C2FA2046D0BDD0B5E2
:1039E00002AF00242146FFF7D4FA2046D0BDD0B55F
:1039F00002AFD4210422425000242146224623460D
:103A0000FFF7ADFA2046D0BDD0B502AFD4210522D4
:103A10004250002421462246FFF7BBFA2046D0BD83
:103A2000002243088B4274D303098B425FD3030AFD
:103A30008B4244D3030B8B4228D3030C8B420DD310
:103A4000FF22090212BA030C8B4202D3121209029E
:103A500065D0030B8B4219D300E0090AC30B8B42DC
:103A600001D3CB03C01A5241830B8B4201D38B038A
:103A7000C01A5241430B8B4201D34B03C01A52412F
:103A8000030B8B4201D30B03C01A5241C30A8B4272
:103A900001D3CB02C01A5241830A8B4201D38B025D
:103AA000C01A5241430A8B4201D34B02C01A524101
:103AB000030A8B4201D30B02C01A5241CDD2C30973
:103AC0008B4201D3CB01C01A524183098B4201D3EF
:103AD0008B01C01A524143098B4201D34B01C01ADA
:103AE000524103098B4201D30B01C01A5241C30852
:103AF0008B4201D3CB00C01A524183088B4201D3C1
:103B00008B00C01A524143088B4201D34B00C01AAC
:103B10005241411A00D20146524110467047FFE718
:103B200001B5002000F006F802BDC0460029F7D01C
:103B300076E770477047C04610B5002200F00AF8DB
:103B400010BDC04610B500F00DF810BD10B500F066
:103B500047F810BD130010B50A00190000F08CF8EA
:103B600010BDC04670B50F2A32D90C0004430B00BB
:103B7000A40731D115000400103D2D0901352D0198
:103B800049191E6826605E6866609E68A660DE68E9
:103B90001033E66010349942F3D10F2345191340D6
:103BA000032B1BD91C1F0023A4080134A400CE58EA
:103BB000EE5004339C42FAD103232D1909191A40FF
:103BC00005D00023CC5CEC5401339A42FAD170BD8D
:103BD0000500002AF5D1FAE70500F2E71A00F8E738
:103BE00070B588420BD98B18984208D2991A531E87
:103BF000002A03D0CA5CC254013BFBD270BD0F2A1D
:103C000009D80500002AF9D00023CC5CEC5401331C
:103C10009A42FAD1F2E70C0004430B00A40726D124
:103C200015000400103D2D0901352D0149191E68AC
:103C300026605E6866609E68A660DE681033E66097
:103C400010349942F3D10F2445191440032C10D994
:103C50000023043CA4080134A400CE58EE500433E1
:103C60009C42FAD103232D1909191A40CAE705000D
:103C7000CAE72200C6E7C04670B583073FD0541E8E
:103C8000002A3BD0CEB20300032503E0621E002CC5
:103C900034D0140001335A1E16702B42F6D1032C77
:103CA00024D9FF250D402A0215432A0415430F2C61
:103CB00011D92600103E3609013636011A009B192B
:103CC000156055609560D56010329342F8D10F228F
:103CD0001440032C0AD9261FB6080136B6001A0074
:103CE0009B1920C29342FCD103221440002C05D022
:103CF000C9B21C19197001339C42FBD170BD14006C
:103D00000300CCE7F0C041464A4653465C466D4648
:103D100076467EC02838F0C80020704710307CC836
:103D200090469946A246AB46B54608C82838F0C822
:103D3000081C00D10120184710B5830727D003784D
:103D4000002B26D00300032102E01A78002A1CD0A1
:103D500001330B42F9D119680F4A104C8A188A4373
:103D600022420FD1043319680B4A8A188A4322422F
:103D700008D104331968084A8A188A432242F1D0CC
:103D800000E001331A78002AFBD1181A10BD030095
:103D9000E1E70020FAE7C046FFFEFEFE808080805B
:103DA000094C6564676572285858585858585858CF
:103DB0002900669A0C200008969EE2119EB1E0F25E
:103DC00073D9669A0C200008969EE2119EB1E1F22A
:103DD00073D9669A0C200008969EE2119EB1E2F219
:103DE00073D9303132333435363738394142434470
:103DF0004546004C65646765720057616974696E79
:103E00006720666F72206D65737361676500536923
:103E1000676E206D657373616765005665726966CC
:103E20007920746578740053616D706C65205369F6
:103E3000676E00457869740044656E790041707062
:103E4000726F766500000000030000000000800033
:103E5000200000000100000000000000FFFFFF0044
:103E60000000000000000000000000000000000052
:103E70000000000000000000000000000000000042
:103E8000070200000C0080000B0000000000000092
:103E9000FFFFFF00000000000A800000FA3DD0C0D4
:103EA0000000000000000000000000000000000012
:103EB0000000000000000000050003000C000700E7
:103EC0000700000000000000FFFFFF0000000000EE
:103ED00000000700000000000000000000000000DB
:103EE00000000000000000000000000000000000D2
:103EF000030000000000800020000000010000001E
:103F000000000000FFFFFF000000000000000000B4
:103F100000000000000000000000000000000000A1
:103F20000000000000000000070200000C008000FC
:103F30000B00000000000000FFFFFF000000000079
:103F40000A8000000E3ED0C000000000000000000B
:103F50000000000000000000000000000000000061
:103F6000050003000C00070007000000000000002F
:103F7000FFFFFF000000000000000700000000003D
:103F80000000000000000000000000000000000031
:103F90000000000000000000050075000D00080092
:103FA0000600000000000000FFFFFF00000000000E
:103FB00000000600000000000000000000000000FB
:103FC00000000000000000000000000000000000F1
:103FD000030000000000800020000000010000003D
:103FE00000000000FFFFFF000000000000000000D4
:103FF00000000000000000000000000000000000C1
:104000000000000000000000070200000C0080001B
:104010000B00000000000000FFFFFF000000000098
:104020000A8000001B3ED0C000000000000000001D
:104030000000000000000000000000000000000080
:10404000070217001A0052000B008A00000000004F
:10405000FFFFFF000000000008801A005C1900202C
:104060000000000000000000000000000000000050
:104070000000000000000000050003000C00070025
:104080000700000000000000FFFFFF00000000002C
:104090000000070000000000000000000000000019
:1040A0000000000000000000000000000000000010
:1040B000050075000D00080006000000000000006B
:1040C000FFFFFF00000000000000060000000000ED
:1040D00000000000000000000000000000000000E0
:1040E0000000000000000000030000003C00400150
:1040F000A401000001000000F9F9F900F9F9F90044
:1041000000000000000000000000000000000000AF
:10411000000000000000000000000000000000009F
:1041200003000000000040013C000000010000000E
:1041300028201D0028201D000000000000000000B5
:10414000000000000000000000000000000000006F
:104150000000000000000000020014000000400108
:104160003C00000001000000FFFFFF0028201D00B0
:1041700004200000273ED0C0000000000000000026
:10418000000000000000000000000000000000002F
:104190008100BE00D7007800280000060100000062
:1041A000B4CC4100F9F9F90004A00000333ED0C0BE
:1041B0000000000099AE3700F9F9F900DD10D0C019
:1041C00000000000000000008100BE00D700780061
:1041D0002800000601000000B4CC4100F9F9F90004
:1041E00004A00000383ED0C00000000099AE3700A7
:1041F000F9F9F9009511D0C000000000000000009E
:104200008100BE00090178002800000601000000BE
:10421000B4CC4100F9F9F90004A000003D3ED0C043
:104220000000000099AE3700F9F9F9001511D0C06F
:10423000000000000000000067006F007730776A20
:10424000805532465F563290006E006D00FFFFFFD2
:10425000FF00000000000000BB37D0C0ED37D0C029
:10426000F936D0C00000000000000000000000008F
:10427000B138D0C0000000000000000000000000C5
:104280008538D0C08538D0C08538D0C07538D0C00A
:104290000E034E0061006E006F0020005300040307
:1042A000090402030E034C0065006400670065000A
:1042B000720006D0F10901A1010903150026FF00D3
:1042C0007508954081080904150026FF00750895BA
:1042D000409108C009022900010102C0320904000E
:1042E000000203000002092111010001222200073F
:1042F00005820340000107050203400001000000A1
:104300000921110100012222000000000A0600021A
:104310000000004001001201000200000040972C44
:1043200001000002010203010538D0C01538D0C0D9
:104330003538D0C02538D0C04538D0C05538D0C069
:104340006538D0C00000000002000000000000003E
:10435000000000000000000000000000000000005D
:10436000000000000000000000000000000000004D
:10437000000000000000000000000000000000003D
:10438000000000000000000000000000000000002D
:10439000000000000000000000000000000000001D
:1043A000000000000000000000000000000000000D
:1043B00000000000000000000000000000000000FD
:1043C00000000000000000000000000000000000ED
:1043D00000000000000000000000000000000000DD
:1043E00000000000000000000000000000000000CD
:1043F00000000000000000000000000000000000BD
:1044000000000000000000000000000000000000AC
:10441000000000000000000000000000000000009C
:0944200000000000000000000093
:10442C00F5F0B346EEF2D9614DF6B55C7A561C390F
:10443C00E1EAAA64ECB16F9E164A8EAF432D940844
:04000005C0D0000166
:00000001FF
